:020000040800F2
:10000000005000202D2E0008612D0008632D0008EF
:10001000652D0008672D0008692D0008000000000C
:100020000000000000000000000000006B2D000830
:100030006D2D0008000000006F2D0008712D0008D4
:10004000752E0008752E0008752E0008CD2D0008AD
:10005000752E0008DD2D0008752E0008752E00088D
:10006000752E0008752E0008752E0008752E0008E4
:10007000752E0008752E0008752E0008752E0008D4
:10008000752E0008752E0008752E0008752E0008C4
:10009000752E0008752E0008752E0008752E0008B4
:1000A000752E0008752E0008752E0008752E0008A4
:1000B000752E0008AD2D0008BD2D0008752E000816
:1000C000752E0008752E0008752E00087D2D00087D
:1000D000752E00088D2D00089D2D0008752E000836
:1000E000752E0008752E0008752E0008000000000F
:1000F0000000000000000000000000000000000000
:0C01000000000000000000005FF808F1A3
:10010C0010B5054C237833B9044B13B10448AFF345
:10011C0000800123237010BD180000200000000097
:10012C00D02E000808B5034B1BB103490348AFF3AD
:10013C00008008BD000000001C000020D02E00082C
:10014C0010B504460E4B18784FF47A73B3FBF0F3EA
:10015C000C4A1068B0FBF3F000F0A2F868B90F2C51
:10016C0001D901200AE0002221464FF0FF3000F0B7
:10017C0055F8034B5C60002000E0012010BD00BF6F
:10018C00000000201400002008B5074A136843F053
:10019C0010031360032000F02FF80020FFF7D0FFAE
:1001AC0002F096FC002008BD00200240034A1168B2
:1001BC00034B1B780B441360704700BF48000020B2
:1001CC0000000020014B1868704700BF4800002059
:1001DC0038B50446FFF7F6FF0546B4F1FF3F02D0F1
:1001EC00044B1B781C44FFF7EDFF401BA042FAD3D5
:1001FC0038BD00BF00000020074AD36823F4E06339
:10020C001B041B0C000200F4E060184340F0BF60BC
:10021C0040F40030D060704700ED00E030B4174B74
:10022C00DB68C3F30223C3F10704042C28BF0424A6
:10023C001D1D062D18D9033B4FF0FF3505FA04F4AC
:10024C0021EA0401994005FA03F322EA0303194356
:10025C0000280BDB0901C9B200F1604000F56140D8
:10026C0080F8001330BC70470023E5E700F00F0066
:10027C000901C9B2024B1954F4E700BF00ED00E0CC
:10028C0014ED00E0002807DB00F01F0240090123F9
:10029C009340024A42F82030704700BF00E100E072
:1002AC000138B0F1807F0AD2064B5860064AF02123
:1002BC0082F823100020986007221A6070470120F2
:1002CC00704700BF10E000E000ED00E008B502F060
:1002DC0061F808BD08B590F82130022B03D0042337
:1002EC008363012008BD0268136823F00E031360BA
:1002FC000268136823F0010313600368194A9342E0
:10030C0014D0143293421FD0143293421ED01432A4
:10031C0093421ED0143293421ED01432934202D018
:10032C004FF0807203E04FF4801200E001220E4B7C
:10033C005A60012380F82130002380F82030436B71
:10034C006BB198470020CDE71022F0E74FF4807294
:10035C00EDE74FF48052EAE74FF48032E7E70020F4
:10036C00C0E700BF0800024000000240F0B482B0B9
:10037C0000263246A2E0002D5AD0012D00D1CE68C5
:10038C00FF2B69D88446FF2B69D89500DCF8004018
:10039C000F27AF4024EA070406FA05F52C43CCF8E6
:1003AC0000404C6814F0805F00F087805F4CA569BA
:1003BC0045F00105A561A46904F001040194019CB8
:1003CC009508AF1C5A4C54F8274002F00307BF00A5
:1003DC004FF00F0C0CFA07FC24EA0C0C554CA04205
:1003EC0043D004F58064A04200F0818004F5806461
:1003FC00A0427ED004F58064A04234D0042435E0C1
:10040C004D4FBD4214D00BD94C4FBD4210D007F507
:10041C008037BD420CD0A7F58017BD42B0D107E0A4
:10042C00A7F58017BD4203D007F58037BD42A7D191
:10043C008D687DB1012D08D044610826A0E7CE68F7
:10044C0008369DE7CE680C369AE70461082697E7D4
:10045C00002695E7042693E700F1040C93E7A2F13C
:10046C000805AD0092E7032400E00024BC4044EAF8
:10047C000C0402352E4F47F825404C6814F4803F8D
:10048C0039D02F4D2C681C432C604C6814F4003F61
:10049C0037D02B4D6C681C436C604C6814F4801F77
:1004AC0035D0274DAC681C43AC604C6814F4001F6D
:1004BC0033D0234DEC682343EB6001320B6833FAE5
:1004CC0002F430D00124944023409C42F5D14D6875
:1004DC00122DB7D094D8022DB1D07FF64CAF032D8E
:1004EC00B6D0112D7FF44CAFCE68043648E701240A
:1004FC00BCE70224BAE7124D2C6824EA03042C60F2
:10050C00C3E70F4D6C6824EA03046C60C5E70C4D1F
:10051C00AC6824EA0304AC60C7E7094DEC6824EA34
:10052C000303EB60C9E702B0F0BC70470010024057
:10053C0000000140000801400000211000003110B3
:10054C000004014012B90904016170470161704750
:10055C00014B01221A60704720000E4282B0084BFA
:10056C001B68084AA2FB03235B0A00FB03F0019003
:10057C0000BF019B5A1E0192002BF9D102B07047AB
:10058C0014000020D34D6210002800F0F58170B5E6
:10059C0082B00446036813F0010F2CD0AB4B5B68A0
:1005AC0003F00C03042B1DD0A84B5B6803F00C0369
:1005BC00082B12D06368B3F5803F41D0002B55D186
:1005CC0003F1804303F504331A6822F480321A6075
:1005DC001A6822F480221A6037E09C4B5B6813F493
:1005EC00803FE7D0994B1B6813F4003F03D063683E
:1005FC00002B00F0C381236813F0020F76D0934BCD
:10060C005B6813F00C0F5FD0904B5B6803F00C032E
:10061C00082B54D02369002B00F08A808C4B0122CC
:10062C001A60FFF7CFFD0546884B1B6813F0020FCD
:10063C0075D1FFF7C7FD401B0228F5D90320A0E1B7
:10064C00824A136843F480331360636843B3FFF743
:10065C00B9FD05467D4B1B6813F4003FCBD1FFF76A
:10066C00B1FD401B6428F5D903208AE1B3F5A02F16
:10067C0009D0764B1A6822F480321A601A6822F478
:10068C0080221A60E1E703F18043A3F53C331A683A
:10069C0042F480221A601A6842F480321A60D4E75D
:1006AC00FFF790FD0546694B1B6813F4003FA2D081
:1006BC00FFF788FD401B6428F5D9032061E1634BEB
:1006CC005B6813F4803FA5D1604B1B6813F0020FDD
:1006DC0004D02369012B01D0012052E15B4A13683D
:1006EC0023F0F803616943EAC1031360236813F034
:1006FC00080F32D0A369002B5BD0564B01221A6035
:10070C00FFF760FD0546514B5B6A13F0020F21D1D8
:10071C00FFF758FD401B0228F5D9032031E14B4A65
:10072C00136823F0F803616943EAC1031360DDE742
:10073C00474B00221A60FFF745FD0546434B1B68EB
:10074C0013F0020FD2D0FFF73DFD401B0228F5D964
:10075C00032016E10120FFF701FF236813F0040FBB
:10076C0000F09880394BDB6913F0805F33D1374B45
:10077C00DA6942F08052DA61DB6903F0805301934D
:10078C00019B0125344B1B6813F4807F25D0E36853
:10079C00012B36D0002B4CD103F1804303F50433ED
:1007AC001A6A22F001021A621A6A22F004021A6210
:1007BC002CE0284B00221A60FFF704FD0546234B62
:1007CC005B6A13F0020FC8D0FFF7FCFC401B022839
:1007DC00F5D90320D5E00025D4E71F4A136843F46C
:1007EC0080731360FFF7EEFC06461B4B1B6813F47B
:1007FC00807FCCD1FFF7E6FC801B6428F5D9032061
:10080C00BFE0124A136A43F001031362E3687BB33F
:10081C00FFF7D8FC06460D4B1B6A13F0020F38D1BC
:10082C00FFF7D0FC801B41F288339842F3D90320A8
:10083C00A7E0052B12D0054B1A6A22F001021A62AE
:10084C001A6A22F004021A62E0E700BF00100240AC
:10085C000000424280044242007000404C4B1A6A35
:10086C0042F004021A621A6A42F001021A62CDE7DF
:10087C00FFF7A8FC0646464B1B6A13F0020F08D084
:10088C00FFF7A0FC801B41F288339842F3D9032078
:10089C0077E0E5B9E369002B72D03D4A526802F06B
:1008AC000C02082A56D0022B17D03A4B00221A60A1
:1008BC00FFF788FC0446364B1B6813F0007F47D0CB
:1008CC00FFF780FC001B0228F5D9032059E0304AC1
:1008DC00D36923F08053D361DCE72E4B00221A60DE
:1008EC00FFF770FC05462A4B1B6813F0007F06D0FF
:1008FC00FFF768FC401B0228F5D9032041E0236A6E
:10090C00B3F5803F1AD022494B6823F47413226A42
:10091C00606A024313434B601E4B01221A60FFF7BF
:10092C0051FC04461A4B1B6813F0007F0ED1FFF7E5
:10093C0049FC001B0228F5D9032022E0144A536815
:10094C0023F40033A1680B435360DCE7002018E06C
:10095C00002016E0012B16D00D4B5B6803F48031A0
:10096C00226A914201D001200BE003F47013626AF9
:10097C0093420AD0012004E001207047012000E0DE
:10098C00002002B070BD0120FBE70020F9E700BF9A
:10099C00001002406000424210B487B0164C94E83C
:1009AC000F000DF1180C0CE90F00238AADF8043080
:1009BC00124B5B6803F00C02082A1AD1C3F3834272
:1009CC00624412F8102C13F4803F05D10C4800FB44
:1009DC0002F007B010BC7047084B5B68C3F3404390
:1009EC00634413F8143C074800FB02F0B0FBF3F02F
:1009FC00EFE70448EDE700BFE82E000800100240C6
:100A0C0000093D0000127A00002800F0A38070B5A8
:100A1C000446524B1B6803F007038B420CD24F4A1F
:100A2C00136823F007030B431360136803F00703E9
:100A3C008B4201D0012070BD236813F0020F17D038
:100A4C0013F0040F04D0464A536843F4E063536038
:100A5C00236813F0080F04D0414A536843F46053E1
:100A6C0053603F4A536823F0F003A068034353607C
:100A7C000D46236813F0010F31D06368012B20D091
:100A8C00022B25D0364A126812F0020F64D034497A
:100A9C004A6822F0030213434B60FFF793FB0646B0
:100AAC002F4B5B6803F00C036268B3EB820F16D01C
:100ABC00FFF788FB801B41F288339842F0D9032062
:100ACC00B9E7274A126812F4003FE0D10120B2E7DF
:100ADC00234A126812F0007FD9D10120ABE71F4BDB
:100AEC001B6803F00703AB420CD91C4A136823F0B4
:100AFC0007032B431360136803F00703AB4201D0C9
:100B0C00012098E7236813F0040F06D0144A5368A9
:100B1C0023F4E063E1680B435360236813F0080F80
:100B2C0007D00F4A536823F46053216943EAC10389
:100B3C005360FFF731FF0A4B5B68C3F30313094A99
:100B4C00D35CD840084B1860084B1868FFF7F8FACC
:100B5C00002070E70120704701206CE70020024064
:100B6C000010024050310008140000200400002046
:100B7C00014B1868704700BF1400002008B5FFF740
:100B8C00F7FF044B5B68C3F30223034AD35CD840E2
:100B9C0008BD00BF001002406031000808B5FFF727
:100BAC00E7FF044B5B68C3F3C223034AD35CD84012
:100BBC0008BD00BF001002406031000870B582B063
:100BCC000446036813F0010F34D03E4BDB6913F07D
:100BDC00805F48D13B4BDA6942F08052DA61DB69C5
:100BEC0003F080530193019B0125374B1B6813F4D1
:100BFC00807F3AD0334B1B6A13F4407311D0626878
:100C0C0002F440729A420CD02E4A136A23F44070BC
:100C1C002E4901260E6000260E60106213F0010FA3
:100C2C0037D1284A136A23F4407361680B4313626B
:100C3C00002D3FD1236813F0020F06D0214A5368D0
:100C4C0023F44043A1680B435360236813F0100F47
:100C5C0035D01C4A536823F48003E1680B4353607E
:100C6C00002002B070BD0025BFE7174A136843F49B
:100C7C0080731360FFF7A6FA0646134B1B6813F438
:100C8C00807FB7D1FFF79EFA801B6428F5D903202B
:100C9C00E7E7FFF797FA06460A4B1B6A13F0020FB9
:100CAC00BFD1FFF78FFA801B41F288339842F3D9FA
:100CBC000320D6E7D36923F08053D361BAE7002031
:100CCC00CFE700BF001002400070004040044242D9
:100CDC0030B587B00546384C94E80F000DF1180C70
:100CEC000CE90F00238AADF80430022D50D0102DE2
:100CFC0003D0012D2BD0002054E0304B5A681B68D8
:100D0C0013F0807F50D0C2F3834306A90B4413F831
:100D1C00100C12F4803F16D0284B5B68C3F3404391
:100D2C000B4413F8142C264BB3FBF2F300FB03F02B
:100D3C00224B5B6813F4800F34D14000214BA3FB92
:100D4C00003040082EE0204B03FB00F0F0E71B4B7B
:100D5C001B6A40F202321A40B2F5817F26D003F4AE
:100D6C004073B3F5007F04D0B3F5407F09D0002069
:100D7C0018E0124A526A12F0020FF5D049F64040C0
:100D8C0010E00E4B1B6813F4003F12D1002009E059
:100D9C00FFF704FF094B5B68C3F3813301335B003E
:100DAC00B0FBF3F007B030BD0020FBE74FF4004080
:100DBC00F8E74FF22440F5E7FC2E00080010024043
:100DCC0000127A00ABAAAAAA00093D0030B402684E
:100DDC009469A5B2D369916988B2854205D0D0696E
:100DEC0080B240EA014030BC704798B240EA0440FF
:100DFC00F9E70368186A5B6A9BB243EA00407047E4
:100E0C00002302E001330A38C0B20928FAD81B01CA
:100E1C00DBB218437047030903EB83035A0000F05D
:100E2C000F001044C0B2704710F0030F16D10D4BD9
:100E3C00A3FB00235B09642202FB13039BB27BB967
:100E4C00084BA3FB0023DB094FF4C87202FB130011
:100E5C0080B208B100207047012070470020704715
:100E6C00012070471F85EB5110B400F5FA6402297C
:100E7C0020D901EB4103C1EBC3011F4BA3FB0113B1
:100E8C0002EB5303234403EB94031C4AA2FB0424FC
:100E9C00A3EB541303EBD41302331948A0FB032028
:100EAC001A1A00EB52008008C0EBC000181AC0B22E
:100EBC0010BC704701EB4103C1EBC3010E4BA3FB0C
:100ECC00011302EB5303234400F2CF7003EB9003A6
:100EDC000A4AA2FB0020A3EB501303EBD0130433FC
:100EEC000748A0FB03201A1A00EB52008008C0EB45
:100EFC00C000181ADBE700BF398EE3381F85EB51B1
:100F0C00254992242DE9F8430746884690F80F901E
:100F1C00447B857B002603E01E2D1FD8013501364E
:100F2C0046453DD2012CF7D0032CF5D0052CF3D03F
:100F3C00072CF1D0082CEFD00A2CEDD00C2CEBD0D8
:100F4C00042C15D0062C13D0092C11D00B2C0FD03F
:100F5C00022CE4D11B2D12D80135E0E70C2C02D069
:100F6C0001340125DBE709F1010901252C46D6E7FF
:100F7C001D2D01D80135D2E701340125CFE71C2DF9
:100F8C0004D01D2DCBD101340125C8E71FFA89F0FF
:100F9C00FFF74AFF08B10135C1E701340125BEE76F
:100FAC0087F80F90E1B27973EAB2BA734846FFF74B
:100FBC005BFF3873BDE8F88338B50446FFF702F9D8
:100FCC00054623685A6812F0200F07D1FFF7FAF88C
:100FDC00401BB0F57A7FF4D9032004E05A6842F044
:100FEC0010025A60002038BD38B5044602685368B8
:100FFC0023F010035360FFF7E5F8054623685B68A0
:10100C0013F0200F07D1FFF7DDF8401BB0F57A7F06
:10101C00F4D9032000E0002038BD38B505460C4655
:10102C00FFF7CAFF10B10123184638BD2B68220CFC
:10103C009A612B68A4B2DC612846FFF7D5FF034602
:10104C000028F1D00123EFE738B505460C46FFF731
:10105C00B3FF10B10123184638BD2B68220C1A625D
:10106C002B68A4B25C622846FFF7BEFF034600283B
:10107C00F1D00123EFE770B5002857D004460029C2
:10108C0056D0037C012B55D00E460123037402234A
:10109C004374BAB90D784B78C3EB03139A004FF431
:1010AC00616303FB05258B781D4429462046FFF719
:1010BC00B4FF0646C8B104236374002323740126CD
:1010CC00304670BD0878FFF7A6FE4FF4616505FB4E
:1010DC0000F57078FFF79FFEC0EB001083001D44F5
:1010EC00B078FFF798FE0544DFE72268536823F0D9
:1010FC00050353602046FFF77CFEB0F1FF3F01D0A3
:10110C00854204D80123637400232374D8E700F5C7
:10111C00A83101F5C0712046FFF796FF0028F1D0E9
:10112C0004236374002323740126C9E70126C7E74F
:10113C000126C5E70226C3E7002875D02DE9F04744
:10114C000546002972D003685B6813F0040F02D0C7
:10115C000120BDE8F08716460C46FFF737FE074620
:10116C00364AA2FB0032D20A4FF4616000FB1270C7
:10117C00334BA3FB00135B096370C3EB03139900A0
:10118C00411AA170172A10D82270002E54D0207842
:10119C00FFF736FE20706078FFF732FE6070A078A3
:1011AC00FFF72EFEA0700020D3E7264BA3FB0738D9
:1011BC004FEA1848244BA3FB02131B0903EB430310
:1011CC00D900531A23702846FFF713FE8246B0F15C
:1011DC00FF3F03D087421CD2A0EB070A194BA3FB9D
:1011EC0007394FEA1949194B03FB19794946284627
:1011FC00FFF713FFE0B9BAF1FF3F0DD00AEB09017D
:10120C002846FFF721FFA8B941462846FFF77AFE8A
:10121C00BBE74FF0FF3AE1E751462846FFF714FFD2
:10122C000028F1D0012094E701207047012090E7BD
:10123C0001208EE701208CE700208AE7C5B3A2913C
:10124C008988888807452EC2ABAAAAAA80510100BA
:10125C0000285DD038B5044600295BD0037C012BF7
:10126C005AD00D460123037402234374D2B9CB78B0
:10127C00C3734B7843738B788373A27B617BE07B66
:10128C00FFF7F2FD207328702046FFF79FFD234BDC
:10129C00A3FB0023B3F5484F11D201236374002044
:1012AC00207438BDC878FFF7B6FDE0736878FFF797
:1012BC00B2FD6073A878FFF7AEFDA073DDE7184DA3
:1012CC00A5FB00352D0C174B03FB150529462046B5
:1012DC00FFF7A3FE28B104236374002323740120B9
:1012EC00DFE72046FFF785FDB0F1FF3FD5D0854203
:1012FC00D3D900F5A83101F5C0712046FFF7A4FE43
:10130C000028CAD004236374002323740120C8E787
:10131C00012070470120C4E70220C2E7C5B3A291A7
:10132C0007452EC280510100C0B138B50446026891
:10133C00536823F008035360FEF744FF0546236807
:10134C005B6813F0080F07D1FEF73CFF401BB0F5AC
:10135C007A7FF4D9032000E0002038BD01207047CB
:10136C0000285AD010B50446437C53B10223637451
:10137C002046FFF7D9FF40B10423637401231846BC
:10138C0010BD037401F0BEFCF0E72046FFF714FE1D
:10139C00002830D12268536823F007035360A368F8
:1013AC0023B11F4A136B23F0010313631C4AD36A46
:1013BC0023F46073A1680B43D3626268B2F1FF3F00
:1013CC001DD021688B6823F00F0343EA12438B6016
:1013DC002168CB681B0C1B0492B21343CB602046D4
:1013EC00FFF702FE0346A0B90022E27301226273EA
:1013FC00A2736274C3E7042363740123BFE7012063
:10140C00FFF766FC08B1421EDBE70423637401237B
:10141C00B5E7042363740123B1E701231846704731
:10142C00006C0040704703681A6812F0010F1BD063
:10143C005A6812F0010F17D010B504465B6813F010
:10144C00040F0CD0FFF7EEFF23686FF004025A6014
:10145C000423637423686FF001025A6010BD01F01D
:10146C000FFB01236374F5E77047F8B505460F468B
:10147C0016461C462B689B6837EA03030CBF0123F6
:10148C000023B34237D0B4F1FF3FF3D0FEF79AFEFE
:10149C00069BC01AA04201D2002CEBD12A685368DB
:1014AC0023F0E00353606B68B3F5827F0BD0AB6A1B
:1014BC00B3F5005F14D0012385F85130002385F873
:1014CC005030032018E0AB68B3F5004F02D0B3F5F1
:1014DC00806FECD12A68136823F040031360E6E7B1
:1014EC002A68136823F4005313602A68136843F4C2
:1014FC0000531360DFE70020F8BD10B582B004463E
:10150C0000920B4600228021FFF7AFFF034610B973
:10151C00184602B010BD636D43F0200363650323CE
:10152C00F6E7002839D010B504460023836290F802
:10153C005130002B2CD0022384F8513022681368D0
:10154C0023F0400313606368A2681343E2681343FB
:10155C002269134362691343A26902F400721343B4
:10156C00E2691343226A1343A16A22680B43136096
:10157C00638B226803F0040353602268D36923F45D
:10158C000063D36100206065012384F8513010BDE5
:10159C0080F8503001F0C8FACDE701207047000008
:1015AC00034690F85000012843D0012083F85000E6
:1015BC00002935D0002A35D093F85100C0B201284B
:1015CC0001D002202FE0032083F851000020586541
:1015DC0019639A86DA8698639887D8871864DA68CC
:1015EC00AAB1154A5A649A68B2F5004F12D019681C
:1015FC004A6842F0A0024A601A68116811F0400F64
:10160C0015D1116841F04001116000200BE00B4A2C
:10161C005A64E8E719680A6842F480420A60E6E70F
:10162C00012000E00120002283F8502070470020A8
:10163C00F9E70220704700BF07170008E116000801
:10164C007047000010B582B00446204B1B68204A3E
:10165C00A2FB03235B0A642202FB03F30193FEF754
:10166C00B1FD0246019B43B1019B013B01932368F1
:10167C009B6813F0020FF5D003E0636D43F0200379
:10168C00636521684B6823F0A0034B6064212046FE
:10169C00FFF733FF18B1636D43F020036365A36854
:1016AC0033B900932368DA6800929B680093009B1F
:1016BC00012384F85130636D23B9204600F09CFE61
:1016CC0002B010BD2046FFF7BBFFF9E71400002065
:1016DC00F119760508B5026B036812781A73036B5F
:1016EC0001330363C38E013B9BB2C386C38E9BB293
:1016FC0003B108BDFFF7A6FFFBE708B5026B036853
:10170C001288DA60036B02330363C38E013B9BB216
:10171C00C386C38E9BB203B108BDFFF793FFFBE7F3
:10172C0010B584B00446026850689368C3F3801106
:10173C0049B913F0010F06D010F0400F03D0236C01
:10174C002046984708E013F0020F07D010F0800FE6
:10175C0004D0636C2046984704B010BDC3F340130B
:10176C000BB90029F8D010F0200FF5D079B194F80E
:10177C005110C9B2032946D0616D41F00401616575
:10178C0000210191D168019191680191019963B196
:10179C00636D43F001036365002303939368039324
:1017AC00136823F040031360039B636D002BD3D0AD
:1017BC002268536823F0E0035360012384F851300E
:1017CC0010F0030F27D02268536823F003035360F3
:1017DC00E36C4BB1124A5A63E06CFEF77BFD18B117
:1017EC00636D43F040036365A36C002BB4D00C4ACB
:1017FC005A63A06CFEF76EFD0028ADD0636D43F00C
:10180C0040036365A8E700230293D36802939368AF
:10181C000293029BA0E72046FFF712FF9CE700BF54
:10182C003118000808B5406A0023C387C386FFF748
:10183C0007FF08BD10B4036A046A24F001040462B3
:10184C00846924F0F00444EA021223F00A030B43E7
:10185C008261036210BC704710B4036A23F010035A
:10186C0003628469036A24F4704444EA023223F06C
:10187C00A00343EA01138261036210BC70478368C2
:10188C0023F07003194341F007018160704702682F
:10189C00D36843F00103D3600268936803F0070335
:1018AC00062B03D0136843F001031360002070472C
:1018BC000268D36823F00103D3600368196A41F20C
:1018CC001112114208D1196A40F24442114203D15B
:1018DC001A6822F001021A600020704790F83C3020
:1018EC00012B0CD0022380F83D3003685961012391
:1018FC0080F83D30002380F83C30184670470220B9
:10190C007047704770477047704710B504460368BE
:10191C001A6912F0020F11D0DA6812F0020F0DD012
:10192C006FF002021A610123037703689B6913F0BD
:10193C00030F70D0FFF7E6FF0023237723681A69A3
:10194C0012F0040F12D0DA6812F0040F0ED06FF000
:10195C0004021A610223237723689B6913F4407FE6
:10196C005FD02046FFF7CEFF0023237723681A6948
:10197C0012F0080F12D0DA6812F0080F0ED06FF0C8
:10198C0008021A61042323772368DB6913F0030F21
:10199C004ED02046FFF7B6FF0023237723681A6941
:1019AC0012F0100F12D0DA6812F0100F0ED06FF088
:1019BC0010021A61082323772368DB6913F4407F34
:1019CC003DD02046FFF79EFF0023237723681A693A
:1019DC0012F0010F03D0DA6812F0010F36D1236830
:1019EC001A6912F0800F03D0DA6812F0800F34D12C
:1019FC0023681A6912F0400F03D0DA6812F0400F16
:101A0C0032D123681A6912F0200F03D0DA6812F071
:101A1C00200F30D110BDFFF774FF2046FFF773FF86
:101A2C008AE72046FFF76DFF2046FFF76CFF9BE728
:101A3C002046FFF766FF2046FFF765FFACE7204620
:101A4C00FFF75FFF2046FFF75EFFBDE76FF0010277
:101A5C001A61204600F0F0FFC1E76FF080021A61B6
:101A6C00204600F0FEF8C3E76FF040021A612046F2
:101A7C00FFF74AFFC5E76FF020021A61204600F01D
:101A8C00EFF8C7E703681B4A90420AD0B0F1804FC9
:101A9C0007D0A2F59432904203D002F580629042B6
:101AAC0003D123F070034A681343124A90420AD0C0
:101ABC00B0F1804F07D0A2F59432904203D002F5DA
:101ACC008062904203D123F44073CA68134323F01D
:101ADC0080034A69134303608B68C3620B6883629B
:101AEC00044B984202D00123436170470B69036396
:101AFC00F9E700BF002C0140A8B110B5044690F8DE
:101B0C003D305BB1022384F83D30211D2068FFF786
:101B1C00B9FF012384F83D30002010BD80F83C3023
:101B2C0001F0B6F8EEE70120704710B4846824F495
:101B3C007F4442EA03230B432343836010BC70476A
:101B4C0090F83C30012B66D010B50446012380F888
:101B5C003C30022380F83D300268936823F47F43C5
:101B6C0023F0770393600B68402B4AD013D9602B7A
:101B7C003DD01ED9702B28D0B3F5005F30D1CB6887
:101B8C004A6889680068FFF7D0FF2268936843F4BD
:101B9C008043936024E0102B06D004D9202B03D073
:101BAC00302B01D01CE0DBB919462068FFF767FE2B
:101BBC0016E0502B14D1CA6849680068FFF73AFE4A
:101BCC0050212068FFF75BFE0AE0CB684A68896801
:101BDC000068FFF7AAFF2268936843F077039360CD
:101BEC00012384F83D30002084F83C0010BDCA6805
:101BFC0049680068FFF730FE60212068FFF73FFE60
:101C0C00EEE7CA6849680068FFF714FE40212068B7
:101C1C00FFF735FEE4E70220704790F83C30012BCB
:101C2C001CD070B4012680F83C60022380F83D3053
:101C3C0002685568936825F070050C682C4323F0F6
:101C4C0080054B682B4354600268936080F83D60BC
:101C5C00002380F83C30184670BC70470220704757
:101C6C00704770470268D36823F49073D36002689E
:101C7C00536923F001035361202380F83A307047F5
:101C8C0090F83930DBB2212B2AD18368B3F5805F11
:101C9C0016D0036A5A1C02621A7803685A60C38C05
:101CAC00013B9BB2C384EBB90268D36823F0800379
:101CBC00D3600268D36843F04003D36000207047C0
:101CCC00036A1B880268C3F30803536003691BB9DA
:101CDC00036A02330362E2E7036A01330362DEE75D
:101CEC00022070470020704738B50446026813691B
:101CFC0023F44053C1680B43136183680269134397
:101D0C0042691A430168CB6823F4B05323F00C03E7
:101D1C001343CB600268536923F4407381690B430E
:101D2C0053610268214B9A421FD0FEF727FF00EB4C
:101D3C00800000EB800063689B00B0FBF3F01C4D4F
:101D4C00A5FB00325109642202FB1102130132334C
:101D5C00A5FB03235B0903F0F00202EB011203F075
:101D6C000F03216813448B6038BDFEF717FF00EB9F
:101D7C00800000EB800063689B00B0FBF3F00C4D1F
:101D8C00A5FB00325109642202FB1102130132330C
:101D9C00A5FB03235B0903F0F00202EB011203F035
:101DAC000F03216813448B60DEE700BF003801404D
:101DBC001F85EB512DE9F04105460F461646984616
:101DCC00069C2B681B6837EA03030CBF0123002316
:101DDC00B3421DD1B4F1FF3FF3D02CB1FEF7F2F9B1
:101DEC00A0EB0800A042ECD92A68D36823F4D07386
:101DFC00D3602A68536923F001035361202385F8CB
:101E0C00393085F83A30002385F83830032000E06B
:101E1C000020BDE8F08158B310B5044690F8393075
:101E2C000BB3242384F839302268D36823F400538D
:101E3C00D3602046FFF758FF2268136923F49043C0
:101E4C0013612268536923F02A0353612268D36813
:101E5C0043F40053D3600020E063202384F839302E
:101E6C0084F83A3010BD80F8383000F097FED8E78F
:101E7C00012070472DE9F04182B01E4690F83930B0
:101E8C00DBB2202B55D104460D469046002955D087
:101E9C00002A55D090F83830012B53D0012380F80C
:101EAC0038300023C363212380F83930FEF78AF9D8
:101EBC000746A4F82480A4F8268010E000963B4640
:101ECC00002280212046FFF775FF00283CD12B888B
:101EDC002268C3F3080353602369C3B90235E38C4A
:101EEC009BB2B3B1E38C013B9BB2E384A368B3F523
:101EFC00805FE3D000963B46002280212046FFF70E
:101F0C0059FF18BB2A7823685A600135E7E7013579
:101F1C00E5E700963B46002240212046FFF74AFFAA
:101F2C000346A8B9202284F83920002284F83820EE
:101F3C0000E00223184602B0BDE8F0810123F9E766
:101F4C000123F7E70223F5E70323F3E70323F1E784
:101F5C000323EFE790F83A30DBB2202B20D109B302
:101F6C0012B390F83830012B20D081628285C28563
:101F7C000023C363222280F83A2080F838300168AD
:101F8C00CA6842F48072CA6001684A6942F0010270
:101F9C004A610168CA6842F02002CA60184670475C
:101FAC0002207047012070470120704702207047C3
:101FBC00704708B50168CB6823F04003CB60202341
:101FCC0080F83930FFF7F4FF002008BD08B590F811
:101FDC003A30DBB2222B45D18368B3F5805F0ED04B
:101FEC00036903BB03685A68836A591C81621A70BF
:101FFC00C38D013B9BB2C385F3B1002033E0826AF1
:10200C00036943B903685B68C3F308031380836AED
:10201C0002338362ECE703685B68DBB21380836A8C
:10202C0001338362E4E703685B68826A511C816256
:10203C0003F07F031370DBE70268D36823F02003FF
:10204C00D3600268D36823F48073D3600268536949
:10205C0023F001035361202380F83A3000F0D2FCC6
:10206C00002000E0022008BD7047000010B50446B7
:10207C0002681368D168526913F00F0005D113F090
:10208C00200F02D011F0200F53D1002867D012F08E
:10209C00010202D111F4907F61D013F0010F06D030
:1020AC0011F4807F03D0E06B40F00100E06313F08B
:1020BC00040F04D01AB1E06B40F00200E06313F09F
:1020CC00020F04D01AB1E06B40F00400E06313F08F
:1020DC00080F04D01AB1E26B42F00802E263E26B23
:1020EC00002A48D013F0200F02D011F0200F24D179
:1020FC0023685B6903F04003E26B12F0080F00D118
:10210C003BB32046FFF7AEFD23685A6912F0400F2F
:10211C001BD05A6922F040025A61636B8BB11A4A88
:10212C005A63606BFEF7D6F828B3606B436B984725
:10213C0021E02046FFF74AFF1DE02046FFF746FF4F
:10214C00D6E72046FFF790FF15E02046FFF78CFFFF
:10215C0011E02046FFF788FF0023E3630BE013F048
:10216C00800F02D011F0800F06D113F0400F02D077
:10217C0011F0400F04D110BD2046FFF781FDFAE7A6
:10218C002046FFF716FFF6E79921000808B5406ACC
:10219C000023C385C384FFF767FF08BD064BDB78BC
:1021AC00073BDBB20D2B03D8044B00221A7070478F
:1021BC00024B80221A7070474C0000203400002023
:1021CC00014B187A704700BF3400002008B5FFF7A8
:1021DC00F7FF40B9204A13780133DBB213700A2B96
:1021EC0002D0052B31D008BD002313705378013376
:1021FC00DBB253703C2B05D0184A138843F02003F4
:10220C001380F0E7154A138843F010031380124A29
:10221C000023537093780133DBB293703C2BEBD1DA
:10222C000E4A138843F0100313800B4A002393705B
:10223C00D3780133DBB2D370182B02D0FFF7AEFF8B
:10224C00DAE713460022DA70F8E7044A138843F001
:10225C0020031380C7E700BF4C0000204000002083
:10226C00014B024A1A6070475000002064000020A5
:10227C002039C9B25F291CD8F0B40F4B1B7803EB83
:10228C0043035E00F6B200230EE0F51801EB4102A9
:10229C0054000A4A2244D75CC0EB00125400084A8E
:1022AC00224457550133DBB2052BEED90020F0BC8C
:1022BC0070474FF0FF30704754000020102F00087B
:1022CC006400002070B505460E46002409E0315D1F
:1022DC002846FFF7CDFF084A1378013313700134F9
:1022EC00E4B2042CF3D9C5EB05156B00034A134477
:1022FC00034A136070BD00BF54000020640000202E
:10230C005000002008B5054B00221A7000EB80032A
:10231C0003491944FFF7D6FF08BD00BF5400002045
:10232C0058000020F8B5D418052C13DC012814D85B
:10233C00002409E08E5C00EB8007094D3D44AE544F
:10234C000132D2B20134E4B29C42F3D3FFF7DAFF8C
:10235C0060B2F8BD4FF0FF30FBE76FF00100F8E71B
:10236C0058000020064B4FF480725A610023054A36
:10237C001360054A1370054A1370054A13707047B1
:10238C0000080140AC000020A8000020B000002094
:10239C00A000002008B5104A138843F004031380F2
:1023AC000E4B1B7803B908BD00230C4A13700C4A62
:1023BC004FF4807151614FF400711161094A13702F
:1023CC00094B1B78094A11681944094B1960012201
:1023DC000848FFF7E5F8E6E740000020A8000020D9
:1023EC0000080140B0000020A00000205000002098
:1023FC00A40000209401002008B51C4A1378013376
:10240C00DBB213701378DBB2022B1AD9174B1B7883
:10241C00DBB2032B1DD0164A13780133DBB21370D9
:10242C000A2B1BD0134B4FF400725A61124B1B78C2
:10243C00C3B9104B4FF480721A61104B01221A7001
:10244C0008BD0F4B19680A3119600122FFF7A8F873
:10245C00F6E701220649FFF7A3F8F1E7134600223D
:10246C001A70DFE70748FFF712FAE9E7B00000201F
:10247C00A00000200008014034000020A80000202B
:10248C00A4000020F800002008B5435C934207D05C
:10249C00425401230A4601460020FFF743FF08BDC2
:1024AC0020234354F5E7000038B51E4BA3FB014332
:1024BC00DB0825D043F0300303701A4BA3FB015407
:1024CC00E40804EB84046500491B41F030014170C1
:1024DC00A3FB0213DB0816D1124BA3FB0213DB0880
:1024EC0003EB83035900521A42F03002C2702023CE
:1024FC0003710523002201461046FFF713FF38BD78
:10250C0020230370D9E743F03003C370054BA3FBC2
:10251C000213DB0803EB83035900521A42F030021A
:10252C000271E6E7CDCCCCCC10B5084C4FF6FF735E
:10253C00082207492046FFF79DFC4FF6FF73022245
:10254C0004492046FFF796FC10BD00BFF80100209F
:10255C007801002008000020F0B589B00024049414
:10256C00059406940794294B9A6942F010029A61DB
:10257C009A6902F010020092009A9A6942F01002D5
:10258C009A619A6902F010020192019A9A6942F0DA
:10259C0004029A619A6902F004020292029A9A6900
:1025AC0042F008029A619B6903F008030393039BB2
:1025BC00174D224620212846FDF7C4FF4FF4005347
:1025CC0004930594069404A91248FDF7CFFE20232A
:1025DC0004930127059706940226079604A928461A
:1025EC00FDF7C4FEA5F5806522464FF440712846E0
:1025FC00FDF7A8FF4FF440730493059706940796D4
:10260C0004A92846FDF7B2FE09B0F0BD0010024047
:10261C00000C01400010014008B50D480D4B036043
:10262C004FF4827343604FF4004383600023C36014
:10263C00036143614FF4007282611022C261036234
:10264C00436283620A23C362FEF76BFF08BD00BFBF
:10265C00940100200030014008B50848084B036085
:10266C004FF4E133436000238360C36003610C22A9
:10267C0042618361C361FFF7CEFB08BD38010020C6
:10268C000038014008B50848084B03604FF4E133AB
:10269C00436000238360C36003610C224261836149
:1026AC00C361FFF7B8FB08BDF801002000440040EF
:1026BC0030B587B0002402940394049405940094DC
:1026CC0001940E4D0E4B2B604F236B60AC6031238D
:1026DC00EB602C61AC612846FFF70EFA4FF4805387
:1026EC00029302A92846FFF72BFA0094019469463D
:1026FC002846FFF792FA07B030BD00BFF800002063
:10270C000004004030B587B0002402940394049474
:10271C000594009401940F4D0F4B2B6040F21F3326
:10272C006B60AC6040F2E733EB602C61AC61284627
:10273C00FFF7E2F94FF48053029302A92846FFF702
:10274C00FFF90094019469462846FFF766FA07B032
:10275C0030BD00BFB40000200008004000B583B0BD
:10276C000B7803F0CF034A7802F0CF0203EB83031C
:10277C0002EB43038DF80430CB7803F0CF030A79D6
:10278C0002F0CF0203EB830302EB43038DF8053019
:10279C008B7903F0CF03CA7902F0CF0203EB8303EA
:1027AC0002EB43038DF80630002201A9FEF763FC0F
:1027BC0020B9044A138843F01003138003B05DF86A
:1027CC0004FB00BF4000002030B583B00024ADF8FE
:1027DC0004408DF806400094144D154B2B604FF0BF
:1027EC00FF336B604FF44073AB602846FEF7B8FDC7
:1027FC008DF804408DF805408DF80640224601A95D
:10280C002846FEF738FC8DF8004001238DF8013086
:10281C0026238DF8023020238DF80330224669469A
:10282C002846FEF715FD03B030BD00BF8001002027
:10283C000028004010B582B00C46002201A9FEF71A
:10284C007BFC9DF805209DF804102046FFF72CFE1C
:10285C0002B010BD30B595B0242200210BA800F0B9
:10286C0029FB002405940694079408940994019478
:10287C0002940394049406230A9301250D950E9556
:10288C0010230F930AA8FDF77FFE01954FF4807378
:10289C00029301A8FEF792F90F230593069407946F
:1028AC0008940994214605A8FEF7AEF815B030BD82
:1028BC0080B5FDF769FCFFF7CDFFFFF74DFEFFF785
:1028CC00ABFEFFF7C9FEFFF7DDFEFFF7F1FEFFF7EA
:1028DC0019FFFFF779FFFFF745FDFFF7C1FC404EED
:1028EC00371D0523002239461046FFF71BFD012436
:1028FC003C4B1C703C4D4FF6FF7305223946284665
:10290C00FFF7B8FA4FF6FF73022231462846FFF75D
:10291C00B1FA082235492846FFF71CFB21463448FA
:10292C00FEF7DCFF334D21462846FEF7D7FF28463D
:10293C00FEF7ADFF4FF47A70FDF74AFC2E4A138870
:10294C0043F0900313800AE02B4A13889BB223F0C8
:10295C0020039BB21380FFF733FC00282DD0264BAD
:10296C001B8813F0800FFAD0234B1B8813F0040F35
:10297C0006D0214A13889BB223F004039BB2138028
:10298C001D4B1B8813F0200FDED11B4B1B8813F043
:10299C00100F18D1184B1B8813F0020FDFD0164AFA
:1029AC0013889BB223F002039BB213800F49134888
:1029BC00FFF7D4FEFFF7B8FDD1E73A220221104809
:1029CC00FFF762FDCBE70C4A13889BB223F0100390
:1029DC009BB213800A490948FFF72CFFBFE700BFE1
:1029EC0008000020A8000020F80100207801002039
:1029FC00F8000020B40000204000002080010020DE
:102A0C000C00002008B50268074B9A4200D008BDA4
:102A1C00082206490648FFF79DFA064A138843F038
:102A2C0002031380F3E700BF00440040780100204C
:102A3C00F80100204000002010B5044602680B4B42
:102A4C009A4204D022680A4B9A420BD010BD094816
:102A5C00FEF72EFF084B4FF480721A61074B0122D0
:102A6C001A70EFE7FFF7B2FBF0E700BF000400407D
:102A7C0000080040F800002000080140A8000020D9
:102A8C000268114B9A4200D0704700B583B0002207
:102A9C0001A9FEF751FB9DF805100C4B5B7999428F
:102AAC000BD00A4B1A8842F010021A8059719DF80B
:102ABC0004201A7103B05DF804FB9DF80420034B4D
:102ACC001B799A42EDD1F5E7002800404000002028
:102ADC0000B583B0124B9A6942F001029A619A696F
:102AEC0002F001020092009ADA6942F08052DA6137
:102AFC00DB6903F080530193019B002211460520F2
:102B0C00FDF78CFB0520FDF7BDFB064A536823F04F
:102B1C00E06343F08063536003B05DF804FB00BFD7
:102B2C00001002400000014000B587B00023029362
:102B3C000393049305930268164B9A4202D007B094
:102B4C005DF804FB03F560439A6942F480529A6184
:102B5C009A6902F480520092009A9A6942F0040237
:102B6C009A619B6903F004030193019BA0230293D8
:102B7C00022303930323059302A90748FDF7F6FBF1
:102B8C000F2200212320FDF749FB2320FDF77AFBC0
:102B9C00D5E700BF003001400008014030B589B0D6
:102BAC00002304930593069307930368344A9342D6
:102BBC0004D0344A934233D009B030BD324B9A69B9
:102BCC0042F480429A619A6902F480420092009A1F
:102BDC009A6942F004029A619B6903F00403019321
:102BEC00019B4FF400730493022305930323079373
:102BFC00264D04A92846FDF7B9FB4FF480630493D6
:102C0C0000240594069404A92846FDF7AFFB224640
:102C1C0021462520FDF702FB2520FDF733FBCBE7F2
:102C2C00194BDA6942F40032DA61DA6902F40032E3
:102C3C000292029A9A6942F004029A619B6903F02B
:102C4C0004030393039B042304930223059303239C
:102C5C0007930E4D04A92846FDF788FB082304931F
:102C6C0000240594069404A92846FDF77FFB224610
:102C7C0021462620FDF7D2FA2620FDF703FB9BE721
:102C8C0000380140004400400010024000080140A0
:102C9C0010B582B004460268184B9A4205D02268DF
:102CAC00174B9A4215D002B010BD03F50233DA6906
:102CBC0042F00402DA61DB6903F004030093009B29
:102CCC00002211461E20FDF7A9FA1E20FDF7DAFAA4
:102CDC00E5E703F50333DA6942F00202DA61DB69F6
:102CEC0003F002030193019B002211461D20FDF706
:102CFC0095FA1D20FDF7C6FAD5E700BF0008004085
:102D0C00000400400268104B9A4200D0704700B596
:102D1C0083B0FDF71DFC0D4BDA6942F00062DA61FD
:102D2C00DB6903F000630193019B094B01221A60DC
:102D3C00002211460320FDF771FA0320FDF7A2FAD9
:102D4C0003B05DF804FB00BF0028004000100240F7
:102D5C003C0442427047FEE7FEE7FEE7FEE77047A1
:102D6C007047704708B5FDF721FAFDF7AFFA08BDBB
:102D7C0008B50248FEF7D4FC08BD00BF9401002042
:102D8C0008B50248FFF772F908BD00BF38010020F2
:102D9C0008B50248FFF76AF908BD00BFF80100202A
:102DAC0008B50248FEF7B1FD08BD00BFF8000020D1
:102DBC0008B50248FEF7A9FD08BD00BFB40000200D
:102DCC0008B50248FEF72FFB08BD00BF80010020AC
:102DDC00704700000F4B1A6842F001021A605968E4
:102DEC000D4A0A405A601A6822F0847222F480322A
:102DFC001A601A6822F480221A605A6822F4FE02C1
:102E0C005A604FF41F029A60044B4FF000629A60B4
:102E1C00704700BF001002400000FFF800ED00E01A
:102E2C00002103E00B4B5B58435004310A480B4B19
:102E3C0042189A42F6D30A4A02E0002342F8043BB5
:102E4C00084B9A42F9D3FFF7C5FF00F00FF8FFF7D4
:102E5C002FFD704770310008000000201800002082
:102E6C001800002038020020FEE7000070B5002595
:102E7C000C4E0D4CA41BA410A54209D100F022F855
:102E8C0000250A4E0A4CA41BA410A54205D170BD06
:102E9C0056F8253098470135EEE756F82530984717
:102EAC000135F2E768310008683100086831000824
:102EBC006C31000803460244934200D1704703F87A
:102ECC00011BF9E7F8B500BFF8BC08BC9E4670477B
:0C2EDC00F8B500BFF8BC08BC9E4670476B
:102EE80002030405060708090A0B0C0D0E0F101043
:102EF8000102000002030405060708090A0B0C0D6D
:102F08000E0F101001020000000000000000000079
:102F1800005F000000000700070000147F147F1402
:102F280000242A7F2A120027156B5472003649564E
:102F380020500000000B070000001C224100000088
:102F480041221C00002A1C7F1C2A0008083E080891
:102F580000005838000000080808080800006060F1
:102F68000000002010080402003E5149453E0000C0
:102F7800427F40000072494949460022414949368A
:102F8800001814127F10002745454539003C4A496E
:102F980049300001710905030036494949360006E0
:102FA8004949291E00003636000000005B3B00003E
:102FB80000081422410000141414141400004122C3
:102FC800140800020151090600324979413E007C8B
:102FD8001211127C00417F49493E003E4141412285
:102FE80000417F41413E007F49494141007F090935
:102FF8000101003E41494932007F0808087F00006E
:10300800417F4100002040413F01007F08142241D8
:10301800007F40404040007F020C027F007F020496
:10302800087F003E4141413E007F09090906003EF4
:103038004151215E007F0919294600264949493234
:103048000001017F0101003F4040403F0007186038
:103058001807007F2018207F0063140814630003FA
:103068000478040300615149454300007F41410051
:10307800000204081020000041417F000004020102
:10308800020400808080808000000003050000208A
:1030980054545478007F44444438003844444444E9
:1030A80000384444447F0038545454180004047EC3
:1030B800050500085454543C007F080404780000B7
:1030C800447D4000002040443D01007F102844001A
:1030D8000000417F4000007C04780478007C0804EC
:1030E8000478003844444438007C14141408000858
:1030F8001414147C00007C08040400485454542020
:103108000004043F4444003C4040207C001C204014
:10311800201C003C4030403C004428102844000C4F
:103128005050503C004464544C440000083641411F
:103138000000007F00000041413608000002010243
:103148000402000000000000000000000000000071
:103158000102030406070809000000000102030435
:043168003101000829
:04316C000D01000849
:1031700001000000100000000A0D000048656C6CA2
:083180006F0000000024F400C0
:0400000508002E2D94
:00000001FF
