:020000040800F2
:10000000005000200D26000855250008572500083F
:10001000592500085B2500085D2500080000000048
:100020000000000000000000000000005F25000844
:100030006125000800000000632500086525000810
:1000400055260008552600085526000855260008A4
:100050005526000855260008552600085526000894
:100060005526000855260008552600085526000884
:100070005526000855260008552600085526000874
:100080005526000855260008552600085526000864
:100090005526000855260008552600085526000854
:1000A0005526000855260008552600085526000844
:1000B00055260008A1250008B1250008552600088E
:1000C0005526000855260008552600087125000809
:1000D00055260008812500089125000855260008AE
:1000E0005526000855260008552600080000000087
:1000F0000000000000000000000000000000000000
:0C01000000000000000000005FF808F1A3
:10010C0010B5054C237833B9044B13B10448AFF345
:10011C0000800123237010BD180000200000000097
:10012C00B026000808B5034B1BB103490348AFF3D5
:10013C00008008BD000000001C000020B026000854
:10014C0010B504460E4B18784FF47A73B3FBF0F3EA
:10015C000C4A1068B0FBF3F000F0A2F868B90F2C51
:10016C0001D901200AE0002221464FF0FF3000F0B7
:10017C0055F8034B5C60002000E0012010BD00BF6F
:10018C00000000201400002008B5074A136843F053
:10019C0010031360032000F02FF80020FFF7D0FFAE
:1001AC0002F0C2F8002008BD00200240034A11688A
:1001BC00034B1B780B441360704700BF44000020B6
:1001CC0000000020014B1868704700BF440000205D
:1001DC0038B50446FFF7F6FF0546B4F1FF3F02D0F1
:1001EC00044B1B781C44FFF7EDFF401BA042FAD3D5
:1001FC0038BD00BF00000020074AD36823F4E06339
:10020C001B041B0C000200F4E060184340F0BF60BC
:10021C0040F40030D060704700ED00E030B4174B74
:10022C00DB68C3F30223C3F10704042C28BF0424A6
:10023C001D1D062D18D9033B4FF0FF3505FA04F4AC
:10024C0021EA0401994005FA03F322EA0303194356
:10025C0000280BDB0901C9B200F1604000F56140D8
:10026C0080F8001330BC70470023E5E700F00F0066
:10027C000901C9B2024B1954F4E700BF00ED00E0CC
:10028C0014ED00E0002807DB00F01F0240090123F9
:10029C009340024A42F82030704700BF00E100E072
:1002AC000138B0F1807F0AD2064B5860064AF02123
:1002BC0082F823100020986007221A6070470120F2
:1002CC00704700BF10E000E000ED00E008B501F061
:1002DC00D5FC08BD08B590F82130022B03D00423BF
:1002EC008363012008BD0268136823F00E031360BA
:1002FC000268136823F0010313600368194A9342E0
:10030C0014D0143293421FD0143293421ED01432A4
:10031C0093421ED0143293421ED01432934202D018
:10032C004FF0807203E04FF4801200E001220E4B7C
:10033C005A60012380F82130002380F82030436B71
:10034C006BB198470020CDE71022F0E74FF4807294
:10035C00EDE74FF48052EAE74FF48032E7E70020F4
:10036C00C0E700BF0800024000000240F0B482B0B9
:10037C0000263246A2E0002D5AD0012D00D1CE68C5
:10038C00FF2B69D88446FF2B69D89500DCF8004018
:10039C000F27AF4024EA070406FA05F52C43CCF8E6
:1003AC0000404C6814F0805F00F087805F4CA569BA
:1003BC0045F00105A561A46904F001040194019CB8
:1003CC009508AF1C5A4C54F8274002F00307BF00A5
:1003DC004FF00F0C0CFA07FC24EA0C0C554CA04205
:1003EC0043D004F58064A04200F0818004F5806461
:1003FC00A0427ED004F58064A04234D0042435E0C1
:10040C004D4FBD4214D00BD94C4FBD4210D007F507
:10041C008037BD420CD0A7F58017BD42B0D107E0A4
:10042C00A7F58017BD4203D007F58037BD42A7D191
:10043C008D687DB1012D08D044610826A0E7CE68F7
:10044C0008369DE7CE680C369AE70461082697E7D4
:10045C00002695E7042693E700F1040C93E7A2F13C
:10046C000805AD0092E7032400E00024BC4044EAF8
:10047C000C0402352E4F47F825404C6814F4803F8D
:10048C0039D02F4D2C681C432C604C6814F4003F61
:10049C0037D02B4D6C681C436C604C6814F4801F77
:1004AC0035D0274DAC681C43AC604C6814F4001F6D
:1004BC0033D0234DEC682343EB6001320B6833FAE5
:1004CC0002F430D00124944023409C42F5D14D6875
:1004DC00122DB7D094D8022DB1D07FF64CAF032D8E
:1004EC00B6D0112D7FF44CAFCE68043648E701240A
:1004FC00BCE70224BAE7124D2C6824EA03042C60F2
:10050C00C3E70F4D6C6824EA03046C60C5E70C4D1F
:10051C00AC6824EA0304AC60C7E7094DEC6824EA34
:10052C000303EB60C9E702B0F0BC70470010024057
:10053C0000000140000801400000211000003110B3
:10054C00000401408368194201D10020704701204A
:10055C00704712B9090401617047016170470000CE
:10056C0082B0084B1B68084AA2FB03235B0A00FB02
:10057C0003F0019000BF019B5A1E0192002BF9D190
:10058C0002B0704714000020D34D6210002800F018
:10059C00F58170B582B00446036813F0010F2CD0BE
:1005AC00AB4B5B6803F00C03042B1DD0A84B5B68B2
:1005BC0003F00C03082B12D06368B3F5803F41D0D5
:1005CC00002B55D103F1804303F504331A6822F450
:1005DC0080321A601A6822F480221A6037E09C4B31
:1005EC005B6813F4803FE7D0994B1B6813F4003F12
:1005FC0003D06368002B00F0C381236813F0020F53
:10060C0076D0934B5B6813F00C0F5FD0904B5B680C
:10061C0003F00C03082B54D02369002B00F08A80C4
:10062C008C4B01221A60FFF7CDFD0546884B1B68E9
:10063C0013F0020F75D1FFF7C5FD401B0228F5D949
:10064C000320A0E1824A136843F48033136063688B
:10065C0043B3FFF7B7FD05467D4B1B6813F4003F12
:10066C00CBD1FFF7AFFD401B6428F5D903208AE1FD
:10067C00B3F5A02F09D0764B1A6822F480321A6099
:10068C001A6822F480221A60E1E703F18043A3F593
:10069C003C331A6842F480221A601A6842F48032A1
:1006AC001A60D4E7FFF78EFD0546694B1B6813F4FF
:1006BC00003FA2D0FFF786FD401B6428F5D903202C
:1006CC0061E1634B5B6813F4803FA5D1604B1B6801
:1006DC0013F0020F04D02369012B01D0012052E149
:1006EC005B4A136823F0F803616943EAC1031360A2
:1006FC00236813F0080F32D0A369002B5BD0564B44
:10070C0001221A60FFF75EFD0546514B5B6A13F040
:10071C00020F21D1FFF756FD401B0228F5D903200B
:10072C0031E14B4A136823F0F803616943EAC103D2
:10073C001360DDE7474B00221A60FFF743FD0546C7
:10074C00434B1B6813F0020FD2D0FFF73BFD401B4D
:10075C000228F5D9032016E10120FFF701FF2368D9
:10076C0013F0040F00F09880394BDB6913F0805FB5
:10077C0033D1374BDA6942F08052DA61DB6903F02E
:10078C0080530193019B0125344B1B6813F4807F2C
:10079C0025D0E368012B36D0002B4CD103F18043DC
:1007AC0003F504331A6A22F001021A621A6A22F063
:1007BC0004021A622CE0284B00221A60FFF702FD9B
:1007CC000546234B5B6A13F0020FC8D0FFF7FAFC07
:1007DC00401B0228F5D90320D5E00025D4E71F4A99
:1007EC00136843F480731360FFF7ECFC06461B4B55
:1007FC001B6813F4807FCCD1FFF7E4FC801B6428CA
:10080C00F5D90320BFE0124A136A43F001031362C7
:10081C00E3687BB3FFF7D6FC06460D4B1B6A13F05F
:10082C00020F38D1FFF7CEFC801B41F2883398427F
:10083C00F3D90320A7E0052B12D0054B1A6A22F03E
:10084C0001021A621A6A22F004021A62E0E700BF7F
:10085C0000100240000042428004424200700040FE
:10086C004C4B1A6A42F004021A621A6A42F00102F4
:10087C001A62CDE7FFF7A6FC0646464B1B6A13F03F
:10088C00020F08D0FFF79EFC801B41F28833984280
:10089C00F3D9032077E0E5B9E369002B72D03D4A28
:1008AC00526802F00C02082A56D0022B17D03A4B91
:1008BC0000221A60FFF786FC0446364B1B6813F0C7
:1008CC00007F47D0FFF77EFC001B0228F5D90320E0
:1008DC0059E0304AD36923F08053D361DCE72E4BC7
:1008EC0000221A60FFF76EFC05462A4B1B6813F0BA
:1008FC00007F06D0FFF766FC401B0228F5D90320C9
:10090C0041E0236AB3F5803F1AD022494B6823F4A7
:10091C007413226A606A024313434B601E4B01221C
:10092C001A60FFF74FFC04461A4B1B6813F0007F4C
:10093C000ED1FFF747FC001B0228F5D9032022E05B
:10094C00144A536823F40033A1680B435360DCE76B
:10095C00002018E0002016E0012B16D00D4B5B6830
:10096C0003F48031226A914201D001200BE003F4A0
:10097C007013626A93420AD0012004E00120704790
:10098C00012000E0002002B070BD0120FBE7002038
:10099C00F9E700BF001002406000424210B487B07B
:1009AC00164C94E80F000DF1180C0CE90F00238A7B
:1009BC00ADF80430124B5B6803F00C02082A1AD114
:1009CC00C3F38342624412F8102C13F4803F05D118
:1009DC000C4800FB02F007B010BC7047084B5B687A
:1009EC00C3F34043634413F8143C074800FB02F084
:1009FC00B0FBF3F0EFE70448EDE700BFC8260008B2
:100A0C000010024000093D0000127A00002800F09E
:100A1C00A38070B50446524B1B6803F007038B424E
:100A2C000CD24F4A136823F007030B43136013686F
:100A3C0003F007038B4201D0012070BD236813F033
:100A4C00020F17D013F0040F04D0464A536843F436
:100A5C00E0635360236813F0080F04D0414A5368D5
:100A6C0043F4605353603F4A536823F0F003A0688B
:100A7C00034353600D46236813F0010F31D06368B4
:100A8C00012B20D0022B25D0364A126812F0020F0F
:100A9C0064D034494A6822F0030213434B60FFF7D9
:100AAC0091FB06462F4B5B6803F00C036268B3EBBB
:100ABC00820F16D0FFF786FB801B41F288339842D9
:100ACC00F0D90320B9E7274A126812F4003FE0D1AD
:100ADC000120B2E7234A126812F0007FD9D101201D
:100AEC00ABE71F4B1B6803F00703AB420CD91C4A46
:100AFC00136823F007032B431360136803F00703F9
:100B0C00AB4201D0012098E7236813F0040F06D004
:100B1C00144A536823F4E063E1680B435360236881
:100B2C0013F0080F07D00F4A536823F46053216960
:100B3C0043EAC1035360FFF731FF0A4B5B68C3F311
:100B4C000313094AD35CD840084B1860084B18684B
:100B5C00FFF7F6FA002070E70120704701206CE7E0
:100B6C0000200240001002401C2900081400002044
:100B7C0004000020014B1868704700BF14000020CF
:100B8C0008B5FFF7F7FF044B5B68C3F30223034A76
:100B9C00D35CD84008BD00BF001002402C290008CF
:100BAC0008B5FFF7E7FF044B5B68C3F3C223034AA6
:100BBC00D35CD84008BD00BF001002402C290008AF
:100BCC00F8B505460F4616461C462B689B6837EA57
:100BDC0003030CBF01230023B34237D0B4F1FF3F12
:100BEC00F3D0FFF7EFFA069BC01AA04201D2002CFB
:100BFC00EBD12A68536823F0E00353606B68B3F5BC
:100C0C00827F0BD0AB6AB3F5005F14D0012385F85B
:100C1C005130002385F85030032018E0AB68B3F551
:100C2C00004F02D0B3F5806FECD12A68136823F023
:100C3C0040031360E6E72A68136823F4005313603B
:100C4C002A68136843F400531360DFE70020F8BDF3
:100C5C0010B582B0044600920B4600228021FFF7AB
:100C6C00AFFF034610B9184602B010BD636D43F0D8
:100C7C00200363650323F6E7002839D010B504463A
:100C8C000023836290F85130002B2CD0022384F87F
:100C9C0051302268136823F0400313606368A26824
:100CAC001343E26813432269134362691343A26935
:100CBC0002F400721343E2691343226A1343A16ADC
:100CCC0022680B431360638B226803F004035360A8
:100CDC002268D36923F40063D3610020606501238B
:100CEC0084F8513010BD80F8503001F03FFBCDE757
:100CFC0001207047034690F85000012843D0012092
:100D0C0083F85000002935D0002A35D093F85100D3
:100D1C00C0B2012801D002202FE0032083F851003B
:100D2C000020586519639A86DA8698639887D88765
:100D3C001864DA68AAB1154A5A649A68B2F5004F79
:100D4C0012D019684A6842F0A0024A601A68116809
:100D5C0011F0400F15D1116841F0400111600020D5
:100D6C000BE00B4A5A64E8E719680A6842F48042BF
:100D7C000A60E6E7012000E00120002283F8502001
:100D8C0070470020F9E70220704700BF5B0E000897
:100D9C00350E00087047000010B582B00446204B99
:100DAC001B68204AA2FB03235B0A642202FB03F3A9
:100DBC000193FFF707FA0246019B43B1019B013BEC
:100DCC00019323689B6813F0020FF5D003E0636D69
:100DDC0043F02003636521684B6823F0A0034B604C
:100DEC0064212046FFF734FF18B1636D43F02003F4
:100DFC006365A36833B900932368DA6800929B6833
:100E0C000093009B012384F85130636D23B9204675
:100E1C0000F066FF02B010BD2046FFF7BBFFF9E7FC
:100E2C0014000020F119760508B5026B03681278DE
:100E3C001A73036B01330363C38E013B9BB2C386EE
:100E4C00C38E9BB203B108BDFFF7A6FFFBE708B545
:100E5C00026B03681288DA60036B02330363C38E80
:100E6C00013B9BB2C386C38E9BB203B108BDFFF797
:100E7C0093FFFBE710B584B0044602685068936892
:100E8C00C3F3801149B913F0010F06D010F0400FD5
:100E9C0003D0236C2046984708E013F0020F07D0CC
:100EAC0010F0800F04D0636C2046984704B010BD3E
:100EBC00C3F340130BB90029F8D010F0200FF5D074
:100ECC0079B194F85110C9B2032946D0616D41F043
:100EDC000401616500210191D16801919168019132
:100EEC00019963B1636D43F00103636500230393C0
:100EFC0093680393136823F040031360039B636DA3
:100F0C00002BD3D02268536823F0E00353600123F5
:100F1C0084F8513010F0030F27D02268536823F067
:100F2C0003035360E36C4BB1124A5A63E06CFFF756
:100F3C00D1F918B1636D43F040036365A36C002BCA
:100F4C00B4D00C4A5A63A06CFFF7C4F90028ADD09A
:100F5C00636D43F040036365A8E700230293D368F5
:100F6C00029393680293029BA0E72046FFF712FFBF
:100F7C009CE700BF850F000808B5406A0023C387B3
:100F8C00C386FFF707FF08BD10B4036A046A24F098
:100F9C0001040462846924F0F00444EA021223F090
:100FAC000A030B438261036210BC704710B4036ADE
:100FBC0023F0100303628469036A24F4704444EA46
:100FCC00023223F0A00343EA01138261036210BCD6
:100FDC007047836823F07003194341F00701816067
:100FEC0070470268D36843F00103D36002689368CA
:100FFC0003F00703062B03D0136843F001031360BF
:10100C00002070470268D36823F00103D3600368A3
:10101C00196A41F21112114208D1196A40F2444284
:10102C00114203D11A6822F001021A6000207047A5
:10103C0090F83C30012B0CD0022380F83D30036833
:10104C005961012380F83D30002380F83C3018466C
:10105C00704702207047704770477047704710B553
:10106C00044603681A6912F0020F11D0DA6812F004
:10107C00020F0DD06FF002021A610123037703688F
:10108C009B6913F0030F70D0FFF7E6FF0023237763
:10109C0023681A6912F0040F12D0DA6812F0040FE8
:1010AC000ED06FF004021A610223237723689B6928
:1010BC0013F4407F5FD02046FFF7CEFF0023237749
:1010CC0023681A6912F0080F12D0DA6812F0080FB0
:1010DC000ED06FF008021A61042323772368DB69B2
:1010EC0013F0030F4ED02046FFF7B6FF00232377F3
:1010FC0023681A6912F0100F12D0DA6812F0100F70
:10110C000ED06FF010021A61082323772368DB6975
:10111C0013F4407F3DD02046FFF79EFF002323773A
:10112C0023681A6912F0010F03D0DA6812F0010F6C
:10113C0036D123681A6912F0800F03D0DA6812F0E6
:10114C00800F34D123681A6912F0400F03D0DA688B
:10115C0012F0400F32D123681A6912F0200F03D01D
:10116C00DA6812F0200F30D110BDFFF774FF204663
:10117C00FFF773FF8AE72046FFF76DFF2046FFF766
:10118C006CFF9BE72046FFF766FF2046FFF765FFE5
:10119C00ACE72046FFF75FFF2046FFF75EFFBDE799
:1011AC006FF001021A61204601F09AF8C1E76FF066
:1011BC0080021A61204600F0FEF8C3E76FF040028F
:1011CC001A612046FFF74AFFC5E76FF020021A614B
:1011DC00204600F0EFF8C7E703681B4A90420AD09C
:1011EC00B0F1804F07D0A2F59432904203D002F5B3
:1011FC008062904203D123F070034A681343124A71
:10120C0090420AD0B0F1804F07D0A2F594329042B0
:10121C0003D002F58062904203D123F44073CA6874
:10122C00134323F080034A69134303608B68C36242
:10123C000B688362044B984202D0012343617047D0
:10124C000B690363F9E700BF002C0140A8B110B58E
:10125C00044690F83D305BB1022384F83D30211DEB
:10126C002068FFF7B9FF012384F83D30002010BD42
:10127C0080F83C3001F02EF9EEE70120704710B4F5
:10128C00846824F47F4442EA03230B4323438360A2
:10129C0010BC704790F83C30012B66D010B504465A
:1012AC00012380F83C30022380F83D3002689368BB
:1012BC0023F47F4323F0770393600B68402B4AD0D1
:1012CC0013D9602B3DD01ED9702B28D0B3F5005FFD
:1012DC0030D1CB684A6889680068FFF7D0FF226874
:1012EC00936843F48043936024E0102B06D004D918
:1012FC00202B03D0302B01D01CE0DBB91946206821
:10130C00FFF767FE16E0502B14D1CA6849680068D5
:10131C00FFF73AFE50212068FFF75BFE0AE0CB682E
:10132C004A6889680068FFF7AAFF2268936843F04F
:10133C0077039360012384F83D30002084F83C004F
:10134C0010BDCA6849680068FFF730FE602120684C
:10135C00FFF73FFEEEE7CA6849680068FFF714FE26
:10136C0040212068FFF735FEE4E70220704790F833
:10137C003C30012B1CD070B4012680F83C60022359
:10138C0080F83D3002685568936825F070050C684C
:10139C002C4323F080054B682B4354600268936008
:1013AC0080F83D60002380F83C30184670BC7047D4
:1013BC0002207047704770470268D36823F490731B
:1013CC00D3600268536923F001035361202380F832
:1013DC003A30704790F83930DBB2212B2AD1836830
:1013EC00B3F5805F16D0036A5A1C02621A78036840
:1013FC005A60C38C013B9BB2C384EBB90268D368BF
:10140C0023F08003D3600268D36843F04003D360B9
:10141C0000207047036A1B880268C3F308035360FB
:10142C0003691BB9036A02330362E2E7036A0133FF
:10143C000362DEE7022070470020704738B504468F
:10144C000268136923F44053C1680B43136183682A
:10145C000269134342691A430168CB6823F4B05301
:10146C0023F00C031343CB600268536923F44073DD
:10147C0081690B4353610268214B9A421FD0FFF7DD
:10148C007FFB00EB800000EB800063689B00B0FBEF
:10149C00F3F01C4DA5FB00325109642202FB110232
:1014AC0013013233A5FB03235B0903F0F00202EBBB
:1014BC00011203F00F03216813448B6038BDFFF752
:1014CC006FFB00EB800000EB800063689B00B0FBBF
:1014DC00F3F00C4DA5FB00325109642202FB110202
:1014EC0013013233A5FB03235B0903F0F00202EB7B
:1014FC00011203F00F03216813448B60DEE700BF79
:10150C00003801401F85EB512DE9F04105460F468F
:10151C0016469846069C2B681B6837EA03030CBFDB
:10152C0001230023B3421DD1B4F1FF3FF3D02CB102
:10153C00FEF748FEA0EB0800A042ECD92A68D3685D
:10154C0023F4D073D3602A68536923F001035361E9
:10155C00202385F8393085F83A30002385F8383067
:10156C00032000E00020BDE8F08158B310B504461C
:10157C0090F839300BB3242384F839302268D368BF
:10158C0023F40053D3602046FFF758FF22681369F9
:10159C0023F4904313612268536923F02A035361A7
:1015AC002268D36843F40053D3600020E063202307
:1015BC0084F8393084F83A3010BD80F8383000F0B7
:1015CC000FFFD8E7012070472DE9F04182B01E468D
:1015DC0090F83930DBB2202B55D104460D4690469D
:1015EC00002955D0002A55D090F83830012B53D013
:1015FC00012380F838300023C363212380F839306D
:10160C00FEF7E0FD0746A4F82480A4F8268010E03D
:10161C0000963B46002280212046FFF775FF0028EC
:10162C003CD12B882268C3F3080353602369C3B9E8
:10163C000235E38C9BB2B3B1E38C013B9BB2E384E8
:10164C00A368B3F5805FE3D000963B46002280216F
:10165C002046FFF759FF18BB2A7823685A600135DA
:10166C00E7E70135E5E700963B460022402120469E
:10167C00FFF74AFF0346A8B9202284F8392000223C
:10168C0084F8382000E00223184602B0BDE8F0814F
:10169C000123F9E70123F7E70223F5E70323F3E737
:1016AC000323F1E70323EFE790F83A30DBB2202B6A
:1016BC0020D109B312B390F83830012B20D08162BD
:1016CC008285C2850023C363222280F83A2080F8E9
:1016DC0038300168CA6842F48072CA6001684A698D
:1016EC0042F001024A610168CA6842F02002CA60F5
:1016FC001846704702207047012070470120704740
:10170C0002207047704708B50168CB6823F040038E
:10171C00CB60202380F83930FFF7F4FF002008BDA0
:10172C0008B590F83A30DBB2222B45D18368B3F57B
:10173C00805F0ED0036903BB03685A68836A591C27
:10174C0081621A70C38D013B9BB2C385F3B100203B
:10175C0033E0826A036943B903685B68C3F3080327
:10176C001380836A02338362ECE703685B68DBB245
:10177C001380836A01338362E4E703685B68826ADF
:10178C00511C816203F07F031370DBE70268D3689E
:10179C0023F02003D3600268D36823F48073D360F2
:1017AC000268536923F001035361202380F83A3017
:1017BC0000F07CFD002000E0022008BD7047000016
:1017CC0010B5044602681368D168526913F00F0013
:1017DC0005D113F0200F02D011F0200F53D10028A7
:1017EC0067D012F0010202D111F4907F61D013F096
:1017FC00010F06D011F4807F03D0E06B40F00100A4
:10180C00E06313F0040F04D01AB1E06B40F0020057
:10181C00E06313F0020F04D01AB1E06B40F0040047
:10182C00E06313F0080F04D01AB1E26B42F0080227
:10183C00E263E26B002A48D013F0200F02D011F0C3
:10184C00200F24D123685B6903F04003E26B12F094
:10185C00080F00D13BB32046FFF7AEFD23685A6951
:10186C0012F0400F1BD05A6922F040025A61636B90
:10187C008BB11A4A5A63606BFEF72CFD28B3606B70
:10188C00436B984721E02046FFF74AFF1DE02046B6
:10189C00FFF746FFD6E72046FFF790FF15E02046FE
:1018AC00FFF78CFF11E02046FFF788FF0023E3636E
:1018BC000BE013F0800F02D011F0800F06D113F063
:1018CC00400F02D011F0400F04D110BD2046FFF79D
:1018DC0081FDFAE72046FFF716FFF6E7ED18000842
:1018EC0008B5406A0023C385C384FFF767FF08BDB2
:1018FC00064BDB78073BDBB20D2B03D8044B0022E5
:10190C001A707047024B80221A70704748000020F2
:10191C0034000020094A0023537093780133DBB262
:10192C0093703C2B05D0064A138843F010031380A8
:10193C007047134600229A70F5E700BF480000205C
:10194C004000002008B5094AD3780133DBB2D370CC
:10195C00182B07D0FFF7CCFF054A138843F0100370
:10196C00138008BD13460022DA70F3E7480000200C
:10197C004000002038B504460D46494A53680133EF
:10198C005360127A042A09D8DFE802F003233B558E
:10199C00710001280ED0424B00225A60404B1A7A3B
:1019AC005B7A9A4203D03E4A1372002353603C4B3D
:1019BC009C7238BD40F2A4629342EFD9384B01229D
:1019CC005A727323AB70374A138843F01003138099
:1019DC00E4E7012806D0B3F57A7FDFD9304B042237
:1019EC005A72DBE72E4A927A8242F4D02C4B0222B6
:1019FC005A726823AB702B4A138843F01003138080
:101A0C00CCE701280DD0B3F57A7FC7D9244B03223C
:101A1C005A726D23AB70234A138843F01003138062
:101A2C00BCE71F4A927A8242EDD01D4B00225A60CD
:101A3C00FFF788FFB2E701280FD0194B5B68B3F5AD
:101A4C007A7FABD9164B04225A726523AB70154AB8
:101A5C00138843F010031380A0E7114B9B7A834249
:101A6C00EBD00F4B00225A60FFF754FFE5E701283B
:101A7C0007D040F2A462934290D9094B00225A72CB
:101A8C008CE7074A927A8242F3D0054B01225A72B4
:101A9C007323AB70034A138843F0100313807DE764
:101AAC003400002040000020014B187A704700BF22
:101ABC003400002008B5FFF7F7FF40B9204A13782F
:101ACC000133DBB213700A2B02D0052B31D008BDC9
:101ADC000023137053780133DBB253703C2B05D0C9
:101AEC00184A138843F020031380F0E7154A138833
:101AFC0043F010031380124A002353709378013380
:101B0C00DBB293703C2BEBD10E4A138843F01003DD
:101B1C0013800B4A00239370D3780133DBB2D3705C
:101B2C00182B02D0FFF7E4FEDAE713460022DA7036
:101B3C00F8E7044A138843F020031380C7E700BF7B
:101B4C004800002040000020014B024A1A607047F8
:101B5C004C000020600000202039C9B25F291CD83D
:101B6C00F0B40F4B1B7803EB43035E00F6B200237B
:101B7C000EE0F51801EB410254000A4A2244D75CEE
:101B8C00C0EB00125400084A224457550133DBB213
:101B9C00052BEED90020F0BC70474FF0FF3070479A
:101BAC0050000020DC2600086000002070B50546BF
:101BBC000E46002409E0315D2846FFF7CDFF084AA8
:101BCC001378013313700134E4B2042CF3D9C5EB50
:101BDC0005156B00034A1344034A136070BD00BF24
:101BEC0050000020600000204C00002008B5054B80
:101BFC0000221A7000EB800303491944FFF7D6FF4B
:101C0C0008BD00BF5000002054000020F8B5D418C7
:101C1C00052C13DC012814D8002409E08E5C00EBA1
:101C2C008007094D3D44AE540132D2B20134E4B2C6
:101C3C009C42F3D3FFF7DAFF60B2F8BD4FF0FF30F0
:101C4C00FBE76FF00100F8E754000020064B4FF45F
:101C5C0080725A610023054A1360054A1370054AC5
:101C6C001370054A1370704700080140A80000204B
:101C7C00A4000020AC0000209C00002008B5104AF5
:101C8C00138843F0040313800E4B1B7803B908BD73
:101C9C0000230C4A13700C4A4FF4807151614FF4BD
:101CAC0000711161094A1370094B1B78094A1168BC
:101CBC001944094B196001220848FFF71BF8E6E7A5
:101CCC0040000020A400002000080140AC000020CF
:101CDC009C0000204C000020A00000207C01002073
:101CEC0008B51C4A13780133DBB213701378DBB2DE
:101CFC00022B1AD9174B1B78DBB2032B1DD0164ABB
:101D0C0013780133DBB213700A2B1BD0134B4FF437
:101D1C0000725A61124B1B78C3B9104B4FF480728E
:101D2C001A61104B01221A7008BD0F4B19680A3149
:101D3C0019600122FEF7DEFFF6E701220649FEF7E5
:101D4C00D9FFF1E7134600221A70DFE70748FFF7C7
:101D5C0048F9E9E7AC0000209C0000200008014095
:101D6C0034000020A4000020A0000020F40000207B
:101D7C0010B40B7803F0CF034A7802F0CF0203EBD8
:101D8C0083035C001319C370CB7803F0CF030A797B
:101D9C0002F0CF0203EB83035C00131983708B7981
:101DAC0003F0CF03CA7902F0CF0203EB830359008F
:101DBC0053184370034A138843F01003138010BC6C
:101DCC00704700BF4000002008B5435C934207D029
:101DDC00425401230A4601460020FFF717FF08BDB5
:101DEC0020234354F5E7000038B50146204BDB783F
:101DFC00204AA2FB0323DB0827D043F030030370F7
:101E0C001B4CE0781B4BA3FB0052D20802EB820266
:101E1C005500401B40F030004870A278A3FB020331
:101E2C00DB0815D1134BA3FB0203DB0803EB830385
:101E3C005800121A42F03002CA7020230B7105238D
:101E4C0000221046FFF7E2FE38BD20230370D7E7CF
:101E5C0043F03003CB70074BA3FB0203DB0803EB0F
:101E6C0083035800121A42F030020A71E7E700BFF0
:101E7C0048000020CDCCCCCC10B5084C4FF6FF73ED
:101E8C00082207492046FFF79FFB4FF6FF730222FB
:101E9C0004492046FFF798FB10BD00BFE00100206D
:101EAC007401002008000020F0B589B000240494CF
:101EBC00059406940794254B9A6942F010029A6196
:101ECC009A6902F010020192019A9A6942F0040296
:101EDC009A619A6902F004020292029A9A6942F09B
:101EEC0008029A619B6903F008030393039B184D46
:101EFC00224620212846FEF72CFB4FF40053049376
:101F0C000594069404A91348FEF730FA2023049391
:101F1C000127059706940226079604A92846FEF782
:101F2C0025FAA5F5806522464FF440712846FEF748
:101F3C0010FB4FF44073049305970694079604A97D
:101F4C002846FEF713FA09B0F0BD00BF001002409E
:101F5C00000C01400010014008B50D480D4B03600A
:101F6C004FF4827343604FF4004383600023C360DB
:101F7C00036143614FF4007282611022C2610362FB
:101F8C00436283620A23C362FEF776FE08BD00BF7C
:101F9C007C0100200030014008B50848084B036064
:101FAC004FF4E133436000238360C36003610C2270
:101FBC0042618361C361FFF7D8FA08BD3401002088
:101FCC000038014008B50848084B03604FF4E13372
:101FDC00436000238360C36003610C224261836110
:101FEC00C361FFF7C2FA08BDE001002000440040C5
:101FFC0030B587B0002402940394049405940094A3
:10200C0001940E4D0E4B2B604F236B60AC60312353
:10201C00EB602C61AC612846FFF718F94FF4805344
:10202C00029302A92846FFF735F9009401946946FA
:10203C002846FFF79CF907B030BD00BFF400002024
:10204C000004004030B587B000240294039404943B
:10205C000594009401940F4D0F4B2B6040F21F33ED
:10206C006B60AC6040F2E733EB602C61AC612846EE
:10207C00FFF7ECF84FF48053029302A92846FFF7C0
:10208C0009F90094019469462846FFF770F907B0E6
:10209C0030BD00BFB00000200008004010B5044661
:1020AC0008461146FEF74EFA70B90E4A53780133C2
:1020BC00DBB2537000211170092B12D913460A227E
:1020CC005A70012323700CE0064A13780133DBB2FB
:1020DC00137000215170092B03D913460A221A7070
:1020EC00217010BDF000002010B590B0242200210A
:1020FC0007A800F0CFFA00240194029403940494EE
:10210C0005940223069301230A9310230B9306A82C
:10211C00FEF73CFA0F230193029403940494059464
:10212C00214601A8FEF772FC10B010BD80B5FEF779
:10213C002BF8FFF7D9FFFFF7B7FEFFF70DFFFFF7FF
:10214C002BFFFFF73FFFFFF753FFFFF77BFFFFF777
:10215C007DFDFFF7F9FC4A4E371D05230022394659
:10216C001046FFF753FD0124464B1C70464D4FF6AD
:10217C00FF73052239462846FFF726FA4FF6FF7300
:10218C00022231462846FFF71FFA08223F4928460B
:10219C00FFF78AFA21463E48FEF74AFF3D4D21469D
:1021AC002846FEF745FF2846FEF71BFF4FF47A70D2
:1021BC00FEF70EF8384A138843F0B003138019E089
:1021CC00134600221A60344C4FF400523349A01CC1
:1021DC00FFF764FF3249A078FFF7CCFB21E02E4AD1
:1021EC0013889BB223F020039BB21380FFF75CFC97
:1021FC00002833D0284B1B8813F0800FFAD0264BC5
:10220C001B8813F0040F0CD0234A13889BB223F0C5
:10221C0004039BB21380234A136801331360022B0F
:10222C00CED81D4B1B8813F0200FD8D11A4B1B880E
:10223C0013F0100F18D1184B1B8813F0020FD9D0C4
:10224C00154A13889BB223F002039BB213800F49EB
:10225C001548FFF78DFDFFF70FFECBE73A22022161
:10226C000F48FFF7B1FDC5E70B4A13889BB223F06B
:10227C0010039BB213800A48FFF7B6FDBAE700BF04
:10228C0008000020A4000020E001002074010020C0
:10229C00F4000020B000002040000020001001409D
:1022AC000C000020D40100204800002008B5026872
:1022BC00074B9A4200D008BD082206490648FFF792
:1022CC00F3F9064A138843F002031380F3E700BFC7
:1022DC000044004074010020E00100204000002078
:1022EC0010B5044602680B4B9A4204D022680A4B84
:1022FC009A420BD010BD0948FEF784FE084B4FF4F0
:10230C0080721A61074B01221A70EFE7FFF7D2FBBC
:10231C00F0E700BF0004004000080040F40000207B
:10232C0000080140A400002082B00E4B9A6942F0D4
:10233C0001029A619A6902F001020092009ADA692C
:10234C0042F08052DA61DB6903F080530193019B08
:10235C00054A536823F0E06343F08063536002B096
:10236C00704700BF001002400000014000B587B06C
:10237C00002302930393049305930268164B9A422D
:10238C0002D007B05DF804FB03F560439A6942F490
:10239C0080529A619A6902F480520092009A9A696A
:1023AC0042F004029A619B6903F004030193019BC0
:1023BC00A0230293022303930323059302A9074846
:1023CC00FDF7D4FF0F2200212320FDF727FF232048
:1023DC00FDF758FFD5E700BF003001400008014071
:1023EC0030B589B0002304930593069307930368D3
:1023FC00344A934204D0344A934233D009B030BDAE
:10240C00324B9A6942F480429A619A6902F4804292
:10241C000092009A9A6942F004029A619B6903F057
:10242C0004030193019B4FF400730493022305935F
:10243C0003230793264D04A92846FDF797FF4FF475
:10244C008063049300240594069404A92846FDF7A0
:10245C008DFF224621462520FDF7E0FE2520FDF7C5
:10246C0011FFCBE7194BDA6942F40032DA61DA6911
:10247C0002F400320292029A9A6942F004029A61C2
:10248C009B6903F004030393039B0423049302232B
:10249C000593032307930E4D04A92846FDF766FF09
:1024AC000823049300240594069404A92846FDF7F8
:1024BC005DFF224621462620FDF7B0FE2620FDF7C3
:1024CC00E1FE9BE700380140004400400010024050
:1024DC000008014010B582B004460268184B9A42BD
:1024EC0005D02268174B9A4215D002B010BD03F5E7
:1024FC000233DA6942F00402DA61DB6903F00403A7
:10250C000093009B002211461E20FDF787FE1E2023
:10251C00FDF7B8FEE5E703F50333DA6942F0020292
:10252C00DA61DB6903F002030193019B002211467F
:10253C001D20FDF773FE1D20FDF7A4FED5E700BF9F
:10254C0000080040000400407047FEE7FEE7FEE78D
:10255C00FEE770477047704708B5FDF727FEFDF79B
:10256C00B5FE08BD08B50248FEF784FC08BD00BFE7
:10257C007C01002008B50248FFF722F908BD00BF16
:10258C003401002008B50248FFF71AF908BD00BF56
:10259C00E001002008B50248FEF761FD08BD00BF50
:1025AC00F400002008B50248FEF759FD08BD00BF35
:1025BC00B00000200F4B1A6842F001021A605968F3
:1025CC000D4A0A405A601A6822F0847222F4803252
:1025DC001A601A6822F480221A605A6822F4FE02E9
:1025EC005A604FF41F029A60044B4FF000629A60DD
:1025FC00704700BF001002400000FFF800ED00E043
:10260C00002103E00B4B5B58435004310A480B4B41
:10261C0042189A42F6D30A4A02E0002342F8043BDD
:10262C00084B9A42F9D3FFF7C5FF00F00FF8FFF7FC
:10263C007DFD70473C290008000000201800002098
:10264C001800002020020020FEE7000070B50025D5
:10265C000C4E0D4CA41BA410A54209D100F022F87D
:10266C0000250A4E0A4CA41BA410A54205D170BD2E
:10267C0056F8253098470135EEE756F8253098473F
:10268C000135F2E734290008342900083429000800
:10269C003829000803460244934200D1704703F8DE
:1026AC00011BF9E7F8B500BFF8BC08BC9E467047A3
:0C26BC00F8B500BFF8BC08BC9E46704793
:1026C80002030405060708090A0B0C0D0E0F10106B
:1026D800010200000000000000000000005F000090
:1026E80000000700070000147F147F1400242A7FCD
:1026F8002A120027156B54720036495620500000E4
:10270800000B070000001C224100000041221C00B1
:10271800002A1C7F1C2A0008083E080800005838B8
:102728000000000808080808000060600000002099
:1027380010080402003E5149453E0000427F400017
:102748000072494949460022414949360018141285
:102758007F10002745454539003C4A49493000016A
:102768007109050300364949493600064949291EB9
:1027780000003636000000005B3B00000008142211
:10278800410000141414141400004122140800021B
:102798000151090600324979413E007C1211127C30
:1027A80000417F49493E003E4141412200417F416D
:1027B800413E007F49494141007F09090101003E2E
:1027C80041494932007F0808087F0000417F4100E5
:1027D800002040413F01007F08142241007F404013
:1027E8004040007F020C027F007F0204087F003E09
:1027F8004141413E007F09090906003E4151215EE1
:10280800007F091929460026494949320001017FFC
:102818000101003F4040403F000718601807007F53
:102828002018207F0063140814630003047804034D
:1028380000615149454300007F41410000020408FE
:102848001020000041417F000004020102040080C2
:1028580080808080000000030500002054545478D4
:10286800007F4444443800384444444400384444D5
:10287800447F0038545454180004047E05050008A9
:102888005454543C007F080404780000447D400000
:10289800002040443D01007F102844000000417F93
:1028A8004000007C04780478007C08040478003830
:1028B80044444438007C1414140800081414147C8C
:1028C80000007C0804040048545454200004043FC9
:1028D8004444003C4040207C001C2040201C003C1C
:1028E8004030403C004428102844000C5050503CD4
:1028F800004464544C440000083641410000007F05
:1029080000000041413608000002010204020000F4
:1029180000000000000000000000000001020304A5
:0C2928000607080900000000010203047B
:042934003101000865
:042938000D01000885
:10293C0001000000100000000A0D000048656C6CDE
:08294C006F0000000024F400FC
:040000050800260DBC
:00000001FF
